{
  "_format": "hh-sol-artifact-1",
  "contractName": "NFTMarketplace",
  "sourceName": "contracts/NFTMarketplace.sol",
  "abi": [
    {
      "inputs": [
        {
          "internalType": "string",
          "name": "_name",
          "type": "string"
        },
        {
          "internalType": "string",
          "name": "_symbol",
          "type": "string"
        }
      ],
      "stateMutability": "nonpayable",
      "type": "constructor"
    },
    {
      "anonymous": false,
      "inputs": [
        {
          "indexed": true,
          "internalType": "address",
          "name": "owner",
          "type": "address"
        },
        {
          "indexed": true,
          "internalType": "address",
          "name": "approved",
          "type": "address"
        },
        {
          "indexed": true,
          "internalType": "uint256",
          "name": "tokenId",
          "type": "uint256"
        }
      ],
      "name": "Approval",
      "type": "event"
    },
    {
      "anonymous": false,
      "inputs": [
        {
          "indexed": true,
          "internalType": "address",
          "name": "owner",
          "type": "address"
        },
        {
          "indexed": true,
          "internalType": "address",
          "name": "operator",
          "type": "address"
        },
        {
          "indexed": false,
          "internalType": "bool",
          "name": "approved",
          "type": "bool"
        }
      ],
      "name": "ApprovalForAll",
      "type": "event"
    },
    {
      "anonymous": false,
      "inputs": [
        {
          "indexed": true,
          "internalType": "address",
          "name": "previousOwner",
          "type": "address"
        },
        {
          "indexed": true,
          "internalType": "address",
          "name": "newOwner",
          "type": "address"
        }
      ],
      "name": "OwnershipTransferred",
      "type": "event"
    },
    {
      "anonymous": false,
      "inputs": [
        {
          "indexed": false,
          "internalType": "uint256",
          "name": "tokenId",
          "type": "uint256"
        },
        {
          "indexed": false,
          "internalType": "uint256",
          "name": "price",
          "type": "uint256"
        }
      ],
      "name": "TokenListed",
      "type": "event"
    },
    {
      "anonymous": false,
      "inputs": [
        {
          "indexed": false,
          "internalType": "uint256",
          "name": "tokenId",
          "type": "uint256"
        },
        {
          "indexed": false,
          "internalType": "address",
          "name": "buyer",
          "type": "address"
        },
        {
          "indexed": false,
          "internalType": "uint256",
          "name": "price",
          "type": "uint256"
        }
      ],
      "name": "TokenSold",
      "type": "event"
    },
    {
      "anonymous": false,
      "inputs": [
        {
          "indexed": true,
          "internalType": "address",
          "name": "from",
          "type": "address"
        },
        {
          "indexed": true,
          "internalType": "address",
          "name": "to",
          "type": "address"
        },
        {
          "indexed": true,
          "internalType": "uint256",
          "name": "tokenId",
          "type": "uint256"
        }
      ],
      "name": "Transfer",
      "type": "event"
    },
    {
      "inputs": [
        {
          "internalType": "address",
          "name": "_to",
          "type": "address"
        },
        {
          "internalType": "uint256",
          "name": "_tokenId",
          "type": "uint256"
        }
      ],
      "name": "approve",
      "outputs": [],
      "stateMutability": "nonpayable",
      "type": "function"
    },
    {
      "inputs": [
        {
          "internalType": "address",
          "name": "owner",
          "type": "address"
        }
      ],
      "name": "balanceOf",
      "outputs": [
        {
          "internalType": "uint256",
          "name": "",
          "type": "uint256"
        }
      ],
      "stateMutability": "view",
      "type": "function"
    },
    {
      "inputs": [
        {
          "internalType": "uint256",
          "name": "_tokenId",
          "type": "uint256"
        }
      ],
      "name": "buyToken",
      "outputs": [],
      "stateMutability": "payable",
      "type": "function"
    },
    {
      "inputs": [
        {
          "internalType": "uint256",
          "name": "_tokenId",
          "type": "uint256"
        }
      ],
      "name": "cancelListing",
      "outputs": [],
      "stateMutability": "nonpayable",
      "type": "function"
    },
    {
      "inputs": [
        {
          "internalType": "uint256",
          "name": "tokenId",
          "type": "uint256"
        }
      ],
      "name": "getApproved",
      "outputs": [
        {
          "internalType": "address",
          "name": "",
          "type": "address"
        }
      ],
      "stateMutability": "view",
      "type": "function"
    },
    {
      "inputs": [
        {
          "internalType": "uint256",
          "name": "_tokenId",
          "type": "uint256"
        }
      ],
      "name": "getApprovedAddress",
      "outputs": [
        {
          "internalType": "address",
          "name": "",
          "type": "address"
        }
      ],
      "stateMutability": "view",
      "type": "function"
    },
    {
      "inputs": [
        {
          "internalType": "uint256",
          "name": "_tokenId",
          "type": "uint256"
        }
      ],
      "name": "getOwnerOfToken",
      "outputs": [
        {
          "internalType": "address",
          "name": "",
          "type": "address"
        }
      ],
      "stateMutability": "view",
      "type": "function"
    },
    {
      "inputs": [],
      "name": "getTokenIds",
      "outputs": [
        {
          "components": [
            {
              "internalType": "uint256",
              "name": "_value",
              "type": "uint256"
            }
          ],
          "internalType": "struct Counters.Counter",
          "name": "",
          "type": "tuple"
        }
      ],
      "stateMutability": "view",
      "type": "function"
    },
    {
      "inputs": [
        {
          "internalType": "uint256",
          "name": "_tokenId",
          "type": "uint256"
        }
      ],
      "name": "getTokenPrice",
      "outputs": [
        {
          "internalType": "uint256",
          "name": "",
          "type": "uint256"
        }
      ],
      "stateMutability": "view",
      "type": "function"
    },
    {
      "inputs": [
        {
          "internalType": "address",
          "name": "owner",
          "type": "address"
        },
        {
          "internalType": "address",
          "name": "operator",
          "type": "address"
        }
      ],
      "name": "isApprovedForAll",
      "outputs": [
        {
          "internalType": "bool",
          "name": "",
          "type": "bool"
        }
      ],
      "stateMutability": "view",
      "type": "function"
    },
    {
      "inputs": [
        {
          "internalType": "uint256",
          "name": "_tokenId",
          "type": "uint256"
        },
        {
          "internalType": "uint256",
          "name": "_price",
          "type": "uint256"
        }
      ],
      "name": "listForSale",
      "outputs": [],
      "stateMutability": "nonpayable",
      "type": "function"
    },
    {
      "inputs": [
        {
          "internalType": "address",
          "name": "_to",
          "type": "address"
        },
        {
          "internalType": "uint256",
          "name": "_price",
          "type": "uint256"
        }
      ],
      "name": "mintToken",
      "outputs": [],
      "stateMutability": "nonpayable",
      "type": "function"
    },
    {
      "inputs": [],
      "name": "name",
      "outputs": [
        {
          "internalType": "string",
          "name": "",
          "type": "string"
        }
      ],
      "stateMutability": "view",
      "type": "function"
    },
    {
      "inputs": [],
      "name": "owner",
      "outputs": [
        {
          "internalType": "address",
          "name": "",
          "type": "address"
        }
      ],
      "stateMutability": "view",
      "type": "function"
    },
    {
      "inputs": [
        {
          "internalType": "uint256",
          "name": "tokenId",
          "type": "uint256"
        }
      ],
      "name": "ownerOf",
      "outputs": [
        {
          "internalType": "address",
          "name": "",
          "type": "address"
        }
      ],
      "stateMutability": "view",
      "type": "function"
    },
    {
      "inputs": [],
      "name": "renounceOwnership",
      "outputs": [],
      "stateMutability": "nonpayable",
      "type": "function"
    },
    {
      "inputs": [
        {
          "internalType": "address",
          "name": "from",
          "type": "address"
        },
        {
          "internalType": "address",
          "name": "to",
          "type": "address"
        },
        {
          "internalType": "uint256",
          "name": "tokenId",
          "type": "uint256"
        }
      ],
      "name": "safeTransferFrom",
      "outputs": [],
      "stateMutability": "nonpayable",
      "type": "function"
    },
    {
      "inputs": [
        {
          "internalType": "address",
          "name": "from",
          "type": "address"
        },
        {
          "internalType": "address",
          "name": "to",
          "type": "address"
        },
        {
          "internalType": "uint256",
          "name": "tokenId",
          "type": "uint256"
        },
        {
          "internalType": "bytes",
          "name": "data",
          "type": "bytes"
        }
      ],
      "name": "safeTransferFrom",
      "outputs": [],
      "stateMutability": "nonpayable",
      "type": "function"
    },
    {
      "inputs": [
        {
          "internalType": "address",
          "name": "operator",
          "type": "address"
        },
        {
          "internalType": "bool",
          "name": "approved",
          "type": "bool"
        }
      ],
      "name": "setApprovalForAll",
      "outputs": [],
      "stateMutability": "nonpayable",
      "type": "function"
    },
    {
      "inputs": [
        {
          "internalType": "bytes4",
          "name": "interfaceId",
          "type": "bytes4"
        }
      ],
      "name": "supportsInterface",
      "outputs": [
        {
          "internalType": "bool",
          "name": "",
          "type": "bool"
        }
      ],
      "stateMutability": "view",
      "type": "function"
    },
    {
      "inputs": [],
      "name": "symbol",
      "outputs": [
        {
          "internalType": "string",
          "name": "",
          "type": "string"
        }
      ],
      "stateMutability": "view",
      "type": "function"
    },
    {
      "inputs": [
        {
          "internalType": "uint256",
          "name": "tokenId",
          "type": "uint256"
        }
      ],
      "name": "tokenURI",
      "outputs": [
        {
          "internalType": "string",
          "name": "",
          "type": "string"
        }
      ],
      "stateMutability": "view",
      "type": "function"
    },
    {
      "inputs": [
        {
          "internalType": "address",
          "name": "from",
          "type": "address"
        },
        {
          "internalType": "address",
          "name": "to",
          "type": "address"
        },
        {
          "internalType": "uint256",
          "name": "tokenId",
          "type": "uint256"
        }
      ],
      "name": "transferFrom",
      "outputs": [],
      "stateMutability": "nonpayable",
      "type": "function"
    },
    {
      "inputs": [
        {
          "internalType": "address",
          "name": "newOwner",
          "type": "address"
        }
      ],
      "name": "transferOwnership",
      "outputs": [],
      "stateMutability": "nonpayable",
      "type": "function"
    }
  ],
  "bytecode": "0x60806040523480156200001157600080fd5b5060405162003913380380620039138339818101604052810190620000379190620002e8565b818181600090816200004a9190620005b8565b5080600190816200005c9190620005b8565b5050506200007f620000736200008760201b60201c565b6200008f60201b60201c565b50506200069f565b600033905090565b6000600660009054906101000a900473ffffffffffffffffffffffffffffffffffffffff16905081600660006101000a81548173ffffffffffffffffffffffffffffffffffffffff021916908373ffffffffffffffffffffffffffffffffffffffff1602179055508173ffffffffffffffffffffffffffffffffffffffff168173ffffffffffffffffffffffffffffffffffffffff167f8be0079c531659141344cd1fd0a4f28419497f9722a3daafe3b4186f6b6457e060405160405180910390a35050565b6000604051905090565b600080fd5b600080fd5b600080fd5b600080fd5b6000601f19601f8301169050919050565b7f4e487b7100000000000000000000000000000000000000000000000000000000600052604160045260246000fd5b620001be8262000173565b810181811067ffffffffffffffff82111715620001e057620001df62000184565b5b80604052505050565b6000620001f562000155565b9050620002038282620001b3565b919050565b600067ffffffffffffffff82111562000226576200022562000184565b5b620002318262000173565b9050602081019050919050565b60005b838110156200025e57808201518184015260208101905062000241565b60008484015250505050565b6000620002816200027b8462000208565b620001e9565b905082815260208101848484011115620002a0576200029f6200016e565b5b620002ad8482856200023e565b509392505050565b600082601f830112620002cd57620002cc62000169565b5b8151620002df8482602086016200026a565b91505092915050565b600080604083850312156200030257620003016200015f565b5b600083015167ffffffffffffffff81111562000323576200032262000164565b5b6200033185828601620002b5565b925050602083015167ffffffffffffffff81111562000355576200035462000164565b5b6200036385828601620002b5565b9150509250929050565b600081519050919050565b7f4e487b7100000000000000000000000000000000000000000000000000000000600052602260045260246000fd5b60006002820490506001821680620003c057607f821691505b602082108103620003d657620003d562000378565b5b50919050565b60008190508160005260206000209050919050565b60006020601f8301049050919050565b600082821b905092915050565b600060088302620004407fffffffffffffffffffffffffffffffffffffffffffffffffffffffffffffffff8262000401565b6200044c868362000401565b95508019841693508086168417925050509392505050565b6000819050919050565b6000819050919050565b600062000499620004936200048d8462000464565b6200046e565b62000464565b9050919050565b6000819050919050565b620004b58362000478565b620004cd620004c482620004a0565b8484546200040e565b825550505050565b600090565b620004e4620004d5565b620004f1818484620004aa565b505050565b5b8181101562000519576200050d600082620004da565b600181019050620004f7565b5050565b601f82111562000568576200053281620003dc565b6200053d84620003f1565b810160208510156200054d578190505b620005656200055c85620003f1565b830182620004f6565b50505b505050565b600082821c905092915050565b60006200058d600019846008026200056d565b1980831691505092915050565b6000620005a883836200057a565b9150826002028217905092915050565b620005c3826200036d565b67ffffffffffffffff811115620005df57620005de62000184565b5b620005eb8254620003a7565b620005f88282856200051d565b600060209050601f8311600181146200063057600084156200061b578287015190505b6200062785826200059a565b86555062000697565b601f1984166200064086620003dc565b60005b828110156200066a5784890151825560018201915060208501945060208101905062000643565b868310156200068a578489015162000686601f8916826200057a565b8355505b6001600288020188555050505b505050505050565b61326480620006af6000396000f3fe60806040526004361061014b5760003560e01c806379c65068116100b6578063c457fb371161006f578063c457fb371461047f578063c87b56dd146104bc578063e80d7fec146104f9578063e985e9c514610522578063eca4742a1461055f578063f2fde38b1461059c5761014b565b806379c65068146103715780637f1dd80b1461039a5780638da5cb5b146103d757806395d89b4114610402578063a22cb4651461042d578063b88d4fde146104565761014b565b8063305a67a811610108578063305a67a81461026357806342842e0e1461028c5780636352211e146102b557806367f718a9146102f257806370a082311461031d578063715018a61461035a5761014b565b806301ffc9a71461015057806306fdde031461018d578063081812fc146101b8578063095ea7b3146101f557806323b872dd1461021e5780632d296bf114610247575b600080fd5b34801561015c57600080fd5b5061017760048036038101906101729190612169565b6105c5565b60405161018491906121b1565b60405180910390f35b34801561019957600080fd5b506101a26106a7565b6040516101af919061225c565b60405180910390f35b3480156101c457600080fd5b506101df60048036038101906101da91906122b4565b610739565b6040516101ec9190612322565b60405180910390f35b34801561020157600080fd5b5061021c60048036038101906102179190612369565b61077f565b005b34801561022a57600080fd5b50610245600480360381019061024091906123a9565b610875565b005b610261600480360381019061025c91906122b4565b6108d5565b005b34801561026f57600080fd5b5061028a600480360381019061028591906122b4565b610aa3565b005b34801561029857600080fd5b506102b360048036038101906102ae91906123a9565b610b6d565b005b3480156102c157600080fd5b506102dc60048036038101906102d791906122b4565b610b8d565b6040516102e99190612322565b60405180910390f35b3480156102fe57600080fd5b50610307610c13565b6040516103149190612427565b60405180910390f35b34801561032957600080fd5b50610344600480360381019061033f9190612442565b610c37565b604051610351919061247e565b60405180910390f35b34801561036657600080fd5b5061036f610cee565b005b34801561037d57600080fd5b5061039860048036038101906103939190612369565b610d02565b005b3480156103a657600080fd5b506103c160048036038101906103bc91906122b4565b610d85565b6040516103ce9190612322565b60405180910390f35b3480156103e357600080fd5b506103ec610d97565b6040516103f99190612322565b60405180910390f35b34801561040e57600080fd5b50610417610dc1565b604051610424919061225c565b60405180910390f35b34801561043957600080fd5b50610454600480360381019061044f91906124c5565b610e53565b005b34801561046257600080fd5b5061047d6004803603810190610478919061263a565b610e69565b005b34801561048b57600080fd5b506104a660048036038101906104a191906122b4565b610ecb565b6040516104b3919061247e565b60405180910390f35b3480156104c857600080fd5b506104e360048036038101906104de91906122b4565b610ee8565b6040516104f0919061225c565b60405180910390f35b34801561050557600080fd5b50610520600480360381019061051b91906126bd565b610f50565b005b34801561052e57600080fd5b50610549600480360381019061054491906126fd565b611055565b60405161055691906121b1565b60405180910390f35b34801561056b57600080fd5b50610586600480360381019061058191906122b4565b6110e9565b6040516105939190612322565b60405180910390f35b3480156105a857600080fd5b506105c360048036038101906105be9190612442565b6110fb565b005b60007f80ac58cd000000000000000000000000000000000000000000000000000000007bffffffffffffffffffffffffffffffffffffffffffffffffffffffff1916827bffffffffffffffffffffffffffffffffffffffffffffffffffffffff1916148061069057507f5b5e139f000000000000000000000000000000000000000000000000000000007bffffffffffffffffffffffffffffffffffffffffffffffffffffffff1916827bffffffffffffffffffffffffffffffffffffffffffffffffffffffff1916145b806106a0575061069f8261117e565b5b9050919050565b6060600080546106b69061276c565b80601f01602080910402602001604051908101604052809291908181526020018280546106e29061276c565b801561072f5780601f106107045761010080835404028352916020019161072f565b820191906000526020600020905b81548152906001019060200180831161071257829003601f168201915b5050505050905090565b6000610744826111e8565b6004600083815260200190815260200160002060009054906101000a900473ffffffffffffffffffffffffffffffffffffffff169050919050565b600061078a82610b8d565b90503373ffffffffffffffffffffffffffffffffffffffff168173ffffffffffffffffffffffffffffffffffffffff1614806107cc57506107cb8133611055565b5b61080b576040517f08c379a0000000000000000000000000000000000000000000000000000000008152600401610802906127e9565b60405180910390fd5b6108158383611233565b818373ffffffffffffffffffffffffffffffffffffffff168273ffffffffffffffffffffffffffffffffffffffff167f8c5be1e5ebec7d5bd14f71427d1e84f3dd0314c0f7b2291e5b200ac8c7c3b92560405160405180910390a4505050565b6108866108806112ec565b826112f4565b6108c5576040517f08c379a00000000000000000000000000000000000000000000000000000000081526004016108bc9061287b565b60405180910390fd5b6108d0838383611389565b505050565b6108de81611682565b61091d576040517f08c379a0000000000000000000000000000000000000000000000000000000008152600401610914906128e7565b60405180910390fd5b600061092882610b8d565b9050600060086000848152602001908152602001600020549050600073ffffffffffffffffffffffffffffffffffffffff168273ffffffffffffffffffffffffffffffffffffffff16036109b1576040517f08c379a00000000000000000000000000000000000000000000000000000000081526004016109a890612953565b60405180910390fd5b803410156109f4576040517f08c379a00000000000000000000000000000000000000000000000000000000081526004016109eb906129bf565b60405180910390fd5b6109ff823385611389565b610a08836116c3565b80341115610a63573373ffffffffffffffffffffffffffffffffffffffff166108fc8234610a369190612a0e565b9081150290604051600060405180830381858888f19350505050158015610a61573d6000803e3d6000fd5b505b7f5de13defa3534de0567d51e62e997235f1c1e8ddc82289aeaca94516a358d539833383604051610a9693929190612a42565b60405180910390a1505050565b610aac81611682565b610aeb576040517f08c379a0000000000000000000000000000000000000000000000000000000008152600401610ae2906128e7565b60405180910390fd5b3373ffffffffffffffffffffffffffffffffffffffff16610b0b82610b8d565b73ffffffffffffffffffffffffffffffffffffffff1614610b61576040517f08c379a0000000000000000000000000000000000000000000000000000000008152600401610b5890612aeb565b60405180910390fd5b610b6a816116c3565b50565b610b8883838360405180602001604052806000815250610e69565b505050565b600080610b99836116dd565b9050600073ffffffffffffffffffffffffffffffffffffffff168173ffffffffffffffffffffffffffffffffffffffff1603610c0a576040517f08c379a0000000000000000000000000000000000000000000000000000000008152600401610c0190612b57565b60405180910390fd5b80915050919050565b610c1b6120ea565b6007604051806020016040529081600082015481525050905090565b60008073ffffffffffffffffffffffffffffffffffffffff168273ffffffffffffffffffffffffffffffffffffffff1603610ca7576040517f08c379a0000000000000000000000000000000000000000000000000000000008152600401610c9e90612be9565b60405180910390fd5b600360008373ffffffffffffffffffffffffffffffffffffffff1673ffffffffffffffffffffffffffffffffffffffff168152602001908152602001600020549050919050565b610cf661171a565b610d006000611798565b565b610d0c600761185e565b6000610d186007611874565b9050610d248382611882565b610d2e81836118a0565b826009600083815260200190815260200160002060006101000a81548173ffffffffffffffffffffffffffffffffffffffff021916908373ffffffffffffffffffffffffffffffffffffffff160217905550505050565b6000610d9082610b8d565b9050919050565b6000600660009054906101000a900473ffffffffffffffffffffffffffffffffffffffff16905090565b606060018054610dd09061276c565b80601f0160208091040260200160405190810160405280929190818152602001828054610dfc9061276c565b8015610e495780601f10610e1e57610100808354040283529160200191610e49565b820191906000526020600020905b815481529060010190602001808311610e2c57829003601f168201915b5050505050905090565b610e65610e5e6112ec565b83836118bc565b5050565b610e7a610e746112ec565b836112f4565b610eb9576040517f08c379a0000000000000000000000000000000000000000000000000000000008152600401610eb09061287b565b60405180910390fd5b610ec584848484611a28565b50505050565b600060086000838152602001908152602001600020549050919050565b6060610ef3826111e8565b6000610efd611a84565b90506000815111610f1d5760405180602001604052806000815250610f48565b80610f2784611a9b565b604051602001610f38929190612c45565b6040516020818303038152906040525b915050919050565b610f5982611682565b610f98576040517f08c379a0000000000000000000000000000000000000000000000000000000008152600401610f8f906128e7565b60405180910390fd5b3373ffffffffffffffffffffffffffffffffffffffff16610fb883610b8d565b73ffffffffffffffffffffffffffffffffffffffff161461100e576040517f08c379a000000000000000000000000000000000000000000000000000000000815260040161100590612cdb565b60405180910390fd5b61101882826118a0565b7f1ea85aaf6731daa0c29195039c2a36576fb04e2cd16335504fab8967dfb03f158282604051611049929190612cfb565b60405180910390a15050565b6000600560008473ffffffffffffffffffffffffffffffffffffffff1673ffffffffffffffffffffffffffffffffffffffff16815260200190815260200160002060008373ffffffffffffffffffffffffffffffffffffffff1673ffffffffffffffffffffffffffffffffffffffff16815260200190815260200160002060009054906101000a900460ff16905092915050565b60006110f482610739565b9050919050565b61110361171a565b600073ffffffffffffffffffffffffffffffffffffffff168173ffffffffffffffffffffffffffffffffffffffff1603611172576040517f08c379a000000000000000000000000000000000000000000000000000000000815260040161116990612d96565b60405180910390fd5b61117b81611798565b50565b60007f01ffc9a7000000000000000000000000000000000000000000000000000000007bffffffffffffffffffffffffffffffffffffffffffffffffffffffff1916827bffffffffffffffffffffffffffffffffffffffffffffffffffffffff1916149050919050565b6111f181611682565b611230576040517f08c379a000000000000000000000000000000000000000000000000000000000815260040161122790612b57565b60405180910390fd5b50565b816004600083815260200190815260200160002060006101000a81548173ffffffffffffffffffffffffffffffffffffffff021916908373ffffffffffffffffffffffffffffffffffffffff160217905550808273ffffffffffffffffffffffffffffffffffffffff166112a683610b8d565b73ffffffffffffffffffffffffffffffffffffffff167f8c5be1e5ebec7d5bd14f71427d1e84f3dd0314c0f7b2291e5b200ac8c7c3b92560405160405180910390a45050565b600033905090565b60008061130083610b8d565b90508073ffffffffffffffffffffffffffffffffffffffff168473ffffffffffffffffffffffffffffffffffffffff16148061134257506113418185611055565b5b8061138057508373ffffffffffffffffffffffffffffffffffffffff1661136884610739565b73ffffffffffffffffffffffffffffffffffffffff16145b91505092915050565b8273ffffffffffffffffffffffffffffffffffffffff166113a982610b8d565b73ffffffffffffffffffffffffffffffffffffffff16146113ff576040517f08c379a00000000000000000000000000000000000000000000000000000000081526004016113f690612e28565b60405180910390fd5b600073ffffffffffffffffffffffffffffffffffffffff168273ffffffffffffffffffffffffffffffffffffffff160361146e576040517f08c379a000000000000000000000000000000000000000000000000000000000815260040161146590612eba565b60405180910390fd5b61147b8383836001611b69565b8273ffffffffffffffffffffffffffffffffffffffff1661149b82610b8d565b73ffffffffffffffffffffffffffffffffffffffff16146114f1576040517f08c379a00000000000000000000000000000000000000000000000000000000081526004016114e890612e28565b60405180910390fd5b6004600082815260200190815260200160002060006101000a81549073ffffffffffffffffffffffffffffffffffffffff02191690556001600360008573ffffffffffffffffffffffffffffffffffffffff1673ffffffffffffffffffffffffffffffffffffffff168152602001908152602001600020600082825403925050819055506001600360008473ffffffffffffffffffffffffffffffffffffffff1673ffffffffffffffffffffffffffffffffffffffff16815260200190815260200160002060008282540192505081905550816002600083815260200190815260200160002060006101000a81548173ffffffffffffffffffffffffffffffffffffffff021916908373ffffffffffffffffffffffffffffffffffffffff160217905550808273ffffffffffffffffffffffffffffffffffffffff168473ffffffffffffffffffffffffffffffffffffffff167fddf252ad1be2c89b69c2b068fc378daa952ba7f163c4a11628f55a4df523b3ef60405160405180910390a461167d8383836001611b6f565b505050565b60008073ffffffffffffffffffffffffffffffffffffffff166116a4836116dd565b73ffffffffffffffffffffffffffffffffffffffff1614159050919050565b600860008281526020019081526020016000206000905550565b60006002600083815260200190815260200160002060009054906101000a900473ffffffffffffffffffffffffffffffffffffffff169050919050565b6117226112ec565b73ffffffffffffffffffffffffffffffffffffffff16611740610d97565b73ffffffffffffffffffffffffffffffffffffffff1614611796576040517f08c379a000000000000000000000000000000000000000000000000000000000815260040161178d90612f26565b60405180910390fd5b565b6000600660009054906101000a900473ffffffffffffffffffffffffffffffffffffffff16905081600660006101000a81548173ffffffffffffffffffffffffffffffffffffffff021916908373ffffffffffffffffffffffffffffffffffffffff1602179055508173ffffffffffffffffffffffffffffffffffffffff168173ffffffffffffffffffffffffffffffffffffffff167f8be0079c531659141344cd1fd0a4f28419497f9722a3daafe3b4186f6b6457e060405160405180910390a35050565b6001816000016000828254019250508190555050565b600081600001549050919050565b61189c828260405180602001604052806000815250611b75565b5050565b8060086000848152602001908152602001600020819055505050565b8173ffffffffffffffffffffffffffffffffffffffff168373ffffffffffffffffffffffffffffffffffffffff160361192a576040517f08c379a000000000000000000000000000000000000000000000000000000000815260040161192190612f92565b60405180910390fd5b80600560008573ffffffffffffffffffffffffffffffffffffffff1673ffffffffffffffffffffffffffffffffffffffff16815260200190815260200160002060008473ffffffffffffffffffffffffffffffffffffffff1673ffffffffffffffffffffffffffffffffffffffff16815260200190815260200160002060006101000a81548160ff0219169083151502179055508173ffffffffffffffffffffffffffffffffffffffff168373ffffffffffffffffffffffffffffffffffffffff167f17307eab39ab6107e8899845ad3d59bd9653f200f220920489ca2b5937696c3183604051611a1b91906121b1565b60405180910390a3505050565b611a33848484611389565b611a3f84848484611bd0565b611a7e576040517f08c379a0000000000000000000000000000000000000000000000000000000008152600401611a7590613024565b60405180910390fd5b50505050565b606060405180602001604052806000815250905090565b606060006001611aaa84611d57565b01905060008167ffffffffffffffff811115611ac957611ac861250f565b5b6040519080825280601f01601f191660200182016040528015611afb5781602001600182028036833780820191505090505b509050600082602001820190505b600115611b5e578080600190039150507f3031323334353637383961626364656600000000000000000000000000000000600a86061a8153600a8581611b5257611b51613044565b5b04945060008503611b09575b819350505050919050565b50505050565b50505050565b611b7f8383611eaa565b611b8c6000848484611bd0565b611bcb576040517f08c379a0000000000000000000000000000000000000000000000000000000008152600401611bc290613024565b60405180910390fd5b505050565b6000611bf18473ffffffffffffffffffffffffffffffffffffffff166120c7565b15611d4a578373ffffffffffffffffffffffffffffffffffffffff1663150b7a02611c1a6112ec565b8786866040518563ffffffff1660e01b8152600401611c3c94939291906130c8565b6020604051808303816000875af1925050508015611c7857506040513d601f19601f82011682018060405250810190611c759190613129565b60015b611cfa573d8060008114611ca8576040519150601f19603f3d011682016040523d82523d6000602084013e611cad565b606091505b506000815103611cf2576040517f08c379a0000000000000000000000000000000000000000000000000000000008152600401611ce990613024565b60405180910390fd5b805181602001fd5b63150b7a0260e01b7bffffffffffffffffffffffffffffffffffffffffffffffffffffffff1916817bffffffffffffffffffffffffffffffffffffffffffffffffffffffff191614915050611d4f565b600190505b949350505050565b600080600090507a184f03e93ff9f4daa797ed6e38ed64bf6a1f0100000000000000008310611db5577a184f03e93ff9f4daa797ed6e38ed64bf6a1f0100000000000000008381611dab57611daa613044565b5b0492506040810190505b6d04ee2d6d415b85acef81000000008310611df2576d04ee2d6d415b85acef81000000008381611de857611de7613044565b5b0492506020810190505b662386f26fc100008310611e2157662386f26fc100008381611e1757611e16613044565b5b0492506010810190505b6305f5e1008310611e4a576305f5e1008381611e4057611e3f613044565b5b0492506008810190505b6127108310611e6f576127108381611e6557611e64613044565b5b0492506004810190505b60648310611e925760648381611e8857611e87613044565b5b0492506002810190505b600a8310611ea1576001810190505b80915050919050565b600073ffffffffffffffffffffffffffffffffffffffff168273ffffffffffffffffffffffffffffffffffffffff1603611f19576040517f08c379a0000000000000000000000000000000000000000000000000000000008152600401611f10906131a2565b60405180910390fd5b611f2281611682565b15611f62576040517f08c379a0000000000000000000000000000000000000000000000000000000008152600401611f599061320e565b60405180910390fd5b611f70600083836001611b69565b611f7981611682565b15611fb9576040517f08c379a0000000000000000000000000000000000000000000000000000000008152600401611fb09061320e565b60405180910390fd5b6001600360008473ffffffffffffffffffffffffffffffffffffffff1673ffffffffffffffffffffffffffffffffffffffff16815260200190815260200160002060008282540192505081905550816002600083815260200190815260200160002060006101000a81548173ffffffffffffffffffffffffffffffffffffffff021916908373ffffffffffffffffffffffffffffffffffffffff160217905550808273ffffffffffffffffffffffffffffffffffffffff16600073ffffffffffffffffffffffffffffffffffffffff167fddf252ad1be2c89b69c2b068fc378daa952ba7f163c4a11628f55a4df523b3ef60405160405180910390a46120c3600083836001611b6f565b5050565b6000808273ffffffffffffffffffffffffffffffffffffffff163b119050919050565b6040518060200160405280600081525090565b6000604051905090565b600080fd5b600080fd5b60007fffffffff0000000000000000000000000000000000000000000000000000000082169050919050565b61214681612111565b811461215157600080fd5b50565b6000813590506121638161213d565b92915050565b60006020828403121561217f5761217e612107565b5b600061218d84828501612154565b91505092915050565b60008115159050919050565b6121ab81612196565b82525050565b60006020820190506121c660008301846121a2565b92915050565b600081519050919050565b600082825260208201905092915050565b60005b838110156122065780820151818401526020810190506121eb565b60008484015250505050565b6000601f19601f8301169050919050565b600061222e826121cc565b61223881856121d7565b93506122488185602086016121e8565b61225181612212565b840191505092915050565b600060208201905081810360008301526122768184612223565b905092915050565b6000819050919050565b6122918161227e565b811461229c57600080fd5b50565b6000813590506122ae81612288565b92915050565b6000602082840312156122ca576122c9612107565b5b60006122d88482850161229f565b91505092915050565b600073ffffffffffffffffffffffffffffffffffffffff82169050919050565b600061230c826122e1565b9050919050565b61231c81612301565b82525050565b60006020820190506123376000830184612313565b92915050565b61234681612301565b811461235157600080fd5b50565b6000813590506123638161233d565b92915050565b600080604083850312156123805761237f612107565b5b600061238e85828601612354565b925050602061239f8582860161229f565b9150509250929050565b6000806000606084860312156123c2576123c1612107565b5b60006123d086828701612354565b93505060206123e186828701612354565b92505060406123f28682870161229f565b9150509250925092565b6124058161227e565b82525050565b60208201600082015161242160008501826123fc565b50505050565b600060208201905061243c600083018461240b565b92915050565b60006020828403121561245857612457612107565b5b600061246684828501612354565b91505092915050565b6124788161227e565b82525050565b6000602082019050612493600083018461246f565b92915050565b6124a281612196565b81146124ad57600080fd5b50565b6000813590506124bf81612499565b92915050565b600080604083850312156124dc576124db612107565b5b60006124ea85828601612354565b92505060206124fb858286016124b0565b9150509250929050565b600080fd5b600080fd5b7f4e487b7100000000000000000000000000000000000000000000000000000000600052604160045260246000fd5b61254782612212565b810181811067ffffffffffffffff821117156125665761256561250f565b5b80604052505050565b60006125796120fd565b9050612585828261253e565b919050565b600067ffffffffffffffff8211156125a5576125a461250f565b5b6125ae82612212565b9050602081019050919050565b82818337600083830152505050565b60006125dd6125d88461258a565b61256f565b9050828152602081018484840111156125f9576125f861250a565b5b6126048482856125bb565b509392505050565b600082601f83011261262157612620612505565b5b81356126318482602086016125ca565b91505092915050565b6000806000806080858703121561265457612653612107565b5b600061266287828801612354565b945050602061267387828801612354565b93505060406126848782880161229f565b925050606085013567ffffffffffffffff8111156126a5576126a461210c565b5b6126b18782880161260c565b91505092959194509250565b600080604083850312156126d4576126d3612107565b5b60006126e28582860161229f565b92505060206126f38582860161229f565b9150509250929050565b6000806040838503121561271457612713612107565b5b600061272285828601612354565b925050602061273385828601612354565b9150509250929050565b7f4e487b7100000000000000000000000000000000000000000000000000000000600052602260045260246000fd5b6000600282049050600182168061278457607f821691505b6020821081036127975761279661273d565b5b50919050565b7f4e6f7420617070726f76656420746f207472616e736665720000000000000000600082015250565b60006127d36018836121d7565b91506127de8261279d565b602082019050919050565b60006020820190508181036000830152612802816127c6565b9050919050565b7f4552433732313a2063616c6c6572206973206e6f7420746f6b656e206f776e6560008201527f72206f7220617070726f76656400000000000000000000000000000000000000602082015250565b6000612865602d836121d7565b915061287082612809565b604082019050919050565b6000602082019050818103600083015261289481612858565b9050919050565b7f546f6b656e20646f6573206e6f74206578697374000000000000000000000000600082015250565b60006128d16014836121d7565b91506128dc8261289b565b602082019050919050565b60006020820190508181036000830152612900816128c4565b9050919050565b7f496e76616c696420746f6b656e206f776e657200000000000000000000000000600082015250565b600061293d6013836121d7565b915061294882612907565b602082019050919050565b6000602082019050818103600083015261296c81612930565b9050919050565b7f496e73756666696369656e742066756e64730000000000000000000000000000600082015250565b60006129a96012836121d7565b91506129b482612973565b602082019050919050565b600060208201905081810360008301526129d88161299c565b9050919050565b7f4e487b7100000000000000000000000000000000000000000000000000000000600052601160045260246000fd5b6000612a198261227e565b9150612a248361227e565b9250828203905081811115612a3c57612a3b6129df565b5b92915050565b6000606082019050612a57600083018661246f565b612a646020830185612313565b612a71604083018461246f565b949350505050565b7f4f6e6c7920746f6b656e206f776e65722063616e2063616e63656c206c69737460008201527f696e670000000000000000000000000000000000000000000000000000000000602082015250565b6000612ad56023836121d7565b9150612ae082612a79565b604082019050919050565b60006020820190508181036000830152612b0481612ac8565b9050919050565b7f4552433732313a20696e76616c696420746f6b656e2049440000000000000000600082015250565b6000612b416018836121d7565b9150612b4c82612b0b565b602082019050919050565b60006020820190508181036000830152612b7081612b34565b9050919050565b7f4552433732313a2061646472657373207a65726f206973206e6f74206120766160008201527f6c6964206f776e65720000000000000000000000000000000000000000000000602082015250565b6000612bd36029836121d7565b9150612bde82612b77565b604082019050919050565b60006020820190508181036000830152612c0281612bc6565b9050919050565b600081905092915050565b6000612c1f826121cc565b612c298185612c09565b9350612c398185602086016121e8565b80840191505092915050565b6000612c518285612c14565b9150612c5d8284612c14565b91508190509392505050565b7f4f6e6c7920746f6b656e206f776e65722063616e206c69737420666f7220736160008201527f6c65000000000000000000000000000000000000000000000000000000000000602082015250565b6000612cc56022836121d7565b9150612cd082612c69565b604082019050919050565b60006020820190508181036000830152612cf481612cb8565b9050919050565b6000604082019050612d10600083018561246f565b612d1d602083018461246f565b9392505050565b7f4f776e61626c653a206e6577206f776e657220697320746865207a65726f206160008201527f6464726573730000000000000000000000000000000000000000000000000000602082015250565b6000612d806026836121d7565b9150612d8b82612d24565b604082019050919050565b60006020820190508181036000830152612daf81612d73565b9050919050565b7f4552433732313a207472616e736665722066726f6d20696e636f72726563742060008201527f6f776e6572000000000000000000000000000000000000000000000000000000602082015250565b6000612e126025836121d7565b9150612e1d82612db6565b604082019050919050565b60006020820190508181036000830152612e4181612e05565b9050919050565b7f4552433732313a207472616e7366657220746f20746865207a65726f2061646460008201527f7265737300000000000000000000000000000000000000000000000000000000602082015250565b6000612ea46024836121d7565b9150612eaf82612e48565b604082019050919050565b60006020820190508181036000830152612ed381612e97565b9050919050565b7f4f776e61626c653a2063616c6c6572206973206e6f7420746865206f776e6572600082015250565b6000612f106020836121d7565b9150612f1b82612eda565b602082019050919050565b60006020820190508181036000830152612f3f81612f03565b9050919050565b7f4552433732313a20617070726f766520746f2063616c6c657200000000000000600082015250565b6000612f7c6019836121d7565b9150612f8782612f46565b602082019050919050565b60006020820190508181036000830152612fab81612f6f565b9050919050565b7f4552433732313a207472616e7366657220746f206e6f6e20455243373231526560008201527f63656976657220696d706c656d656e7465720000000000000000000000000000602082015250565b600061300e6032836121d7565b915061301982612fb2565b604082019050919050565b6000602082019050818103600083015261303d81613001565b9050919050565b7f4e487b7100000000000000000000000000000000000000000000000000000000600052601260045260246000fd5b600081519050919050565b600082825260208201905092915050565b600061309a82613073565b6130a4818561307e565b93506130b48185602086016121e8565b6130bd81612212565b840191505092915050565b60006080820190506130dd6000830187612313565b6130ea6020830186612313565b6130f7604083018561246f565b8181036060830152613109818461308f565b905095945050505050565b6000815190506131238161213d565b92915050565b60006020828403121561313f5761313e612107565b5b600061314d84828501613114565b91505092915050565b7f4552433732313a206d696e7420746f20746865207a65726f2061646472657373600082015250565b600061318c6020836121d7565b915061319782613156565b602082019050919050565b600060208201905081810360008301526131bb8161317f565b9050919050565b7f4552433732313a20746f6b656e20616c7265616479206d696e74656400000000600082015250565b60006131f8601c836121d7565b9150613203826131c2565b602082019050919050565b60006020820190508181036000830152613227816131eb565b905091905056fea26469706673582212209c5745c7b9bb438acdb6081ef2eb677ec38df36fe69b26615355f453d9af7d1f64736f6c63430008130033",
  "linkReferences": {},
  "deployedLinkReferences": {}
}