{
  "_format": "hh-sol-artifact-1",
  "contractName": "NFTMarketplace",
  "sourceName": "contracts/NFTMarketplace.sol",
  "abi": [
    {
      "inputs": [
        {
          "internalType": "string",
          "name": "_name",
          "type": "string"
        },
        {
          "internalType": "string",
          "name": "_symbol",
          "type": "string"
        }
      ],
      "stateMutability": "nonpayable",
      "type": "constructor"
    },
    {
      "anonymous": false,
      "inputs": [
        {
          "indexed": true,
          "internalType": "address",
          "name": "owner",
          "type": "address"
        },
        {
          "indexed": true,
          "internalType": "address",
          "name": "approved",
          "type": "address"
        },
        {
          "indexed": true,
          "internalType": "uint256",
          "name": "tokenId",
          "type": "uint256"
        }
      ],
      "name": "Approval",
      "type": "event"
    },
    {
      "anonymous": false,
      "inputs": [
        {
          "indexed": true,
          "internalType": "address",
          "name": "owner",
          "type": "address"
        },
        {
          "indexed": true,
          "internalType": "address",
          "name": "operator",
          "type": "address"
        },
        {
          "indexed": false,
          "internalType": "bool",
          "name": "approved",
          "type": "bool"
        }
      ],
      "name": "ApprovalForAll",
      "type": "event"
    },
    {
      "anonymous": false,
      "inputs": [
        {
          "indexed": true,
          "internalType": "address",
          "name": "previousOwner",
          "type": "address"
        },
        {
          "indexed": true,
          "internalType": "address",
          "name": "newOwner",
          "type": "address"
        }
      ],
      "name": "OwnershipTransferred",
      "type": "event"
    },
    {
      "anonymous": false,
      "inputs": [
        {
          "indexed": false,
          "internalType": "uint256",
          "name": "tokenId",
          "type": "uint256"
        },
        {
          "indexed": false,
          "internalType": "uint256",
          "name": "price",
          "type": "uint256"
        }
      ],
      "name": "TokenListed",
      "type": "event"
    },
    {
      "anonymous": false,
      "inputs": [
        {
          "indexed": false,
          "internalType": "uint256",
          "name": "tokenId",
          "type": "uint256"
        },
        {
          "indexed": false,
          "internalType": "address",
          "name": "buyer",
          "type": "address"
        },
        {
          "indexed": false,
          "internalType": "uint256",
          "name": "price",
          "type": "uint256"
        }
      ],
      "name": "TokenSold",
      "type": "event"
    },
    {
      "anonymous": false,
      "inputs": [
        {
          "indexed": true,
          "internalType": "address",
          "name": "from",
          "type": "address"
        },
        {
          "indexed": true,
          "internalType": "address",
          "name": "to",
          "type": "address"
        },
        {
          "indexed": true,
          "internalType": "uint256",
          "name": "tokenId",
          "type": "uint256"
        }
      ],
      "name": "Transfer",
      "type": "event"
    },
    {
      "inputs": [
        {
          "internalType": "address",
          "name": "_to",
          "type": "address"
        },
        {
          "internalType": "uint256",
          "name": "_tokenId",
          "type": "uint256"
        }
      ],
      "name": "approve",
      "outputs": [],
      "stateMutability": "nonpayable",
      "type": "function"
    },
    {
      "inputs": [
        {
          "internalType": "address",
          "name": "owner",
          "type": "address"
        }
      ],
      "name": "balanceOf",
      "outputs": [
        {
          "internalType": "uint256",
          "name": "",
          "type": "uint256"
        }
      ],
      "stateMutability": "view",
      "type": "function"
    },
    {
      "inputs": [
        {
          "internalType": "uint256",
          "name": "_tokenId",
          "type": "uint256"
        }
      ],
      "name": "buyToken",
      "outputs": [],
      "stateMutability": "payable",
      "type": "function"
    },
    {
      "inputs": [
        {
          "internalType": "uint256",
          "name": "_tokenId",
          "type": "uint256"
        }
      ],
      "name": "cancelListing",
      "outputs": [],
      "stateMutability": "nonpayable",
      "type": "function"
    },
    {
      "inputs": [
        {
          "internalType": "uint256",
          "name": "tokenId",
          "type": "uint256"
        }
      ],
      "name": "getApproved",
      "outputs": [
        {
          "internalType": "address",
          "name": "",
          "type": "address"
        }
      ],
      "stateMutability": "view",
      "type": "function"
    },
    {
      "inputs": [
        {
          "internalType": "uint256",
          "name": "_tokenId",
          "type": "uint256"
        }
      ],
      "name": "getApprovedAddress",
      "outputs": [
        {
          "internalType": "address",
          "name": "",
          "type": "address"
        }
      ],
      "stateMutability": "view",
      "type": "function"
    },
    {
      "inputs": [
        {
          "internalType": "uint256",
          "name": "_tokenId",
          "type": "uint256"
        }
      ],
      "name": "getNFTData",
      "outputs": [
        {
          "internalType": "address",
          "name": "",
          "type": "address"
        },
        {
          "internalType": "uint256",
          "name": "",
          "type": "uint256"
        },
        {
          "internalType": "string",
          "name": "",
          "type": "string"
        },
        {
          "internalType": "string",
          "name": "",
          "type": "string"
        },
        {
          "internalType": "string",
          "name": "",
          "type": "string"
        }
      ],
      "stateMutability": "view",
      "type": "function"
    },
    {
      "inputs": [
        {
          "internalType": "uint256",
          "name": "_tokenId",
          "type": "uint256"
        }
      ],
      "name": "getOwnerOfToken",
      "outputs": [
        {
          "internalType": "address",
          "name": "",
          "type": "address"
        }
      ],
      "stateMutability": "view",
      "type": "function"
    },
    {
      "inputs": [],
      "name": "getTokenIds",
      "outputs": [
        {
          "components": [
            {
              "internalType": "uint256",
              "name": "_value",
              "type": "uint256"
            }
          ],
          "internalType": "struct Counters.Counter",
          "name": "",
          "type": "tuple"
        }
      ],
      "stateMutability": "view",
      "type": "function"
    },
    {
      "inputs": [
        {
          "internalType": "uint256",
          "name": "_tokenId",
          "type": "uint256"
        }
      ],
      "name": "getTokenPrice",
      "outputs": [
        {
          "internalType": "uint256",
          "name": "",
          "type": "uint256"
        }
      ],
      "stateMutability": "view",
      "type": "function"
    },
    {
      "inputs": [],
      "name": "getTransactions",
      "outputs": [
        {
          "components": [
            {
              "internalType": "uint256",
              "name": "id",
              "type": "uint256"
            },
            {
              "internalType": "address",
              "name": "to",
              "type": "address"
            },
            {
              "internalType": "address",
              "name": "from",
              "type": "address"
            },
            {
              "internalType": "uint256",
              "name": "price",
              "type": "uint256"
            },
            {
              "internalType": "string",
              "name": "title",
              "type": "string"
            }
          ],
          "internalType": "struct NFTMarketplace.TransactionStruct[]",
          "name": "",
          "type": "tuple[]"
        }
      ],
      "stateMutability": "view",
      "type": "function"
    },
    {
      "inputs": [
        {
          "internalType": "address",
          "name": "owner",
          "type": "address"
        },
        {
          "internalType": "address",
          "name": "operator",
          "type": "address"
        }
      ],
      "name": "isApprovedForAll",
      "outputs": [
        {
          "internalType": "bool",
          "name": "",
          "type": "bool"
        }
      ],
      "stateMutability": "view",
      "type": "function"
    },
    {
      "inputs": [
        {
          "internalType": "uint256",
          "name": "_tokenId",
          "type": "uint256"
        },
        {
          "internalType": "uint256",
          "name": "_price",
          "type": "uint256"
        }
      ],
      "name": "listForSale",
      "outputs": [],
      "stateMutability": "nonpayable",
      "type": "function"
    },
    {
      "inputs": [
        {
          "internalType": "address",
          "name": "_to",
          "type": "address"
        },
        {
          "internalType": "uint256",
          "name": "_price",
          "type": "uint256"
        },
        {
          "internalType": "string",
          "name": "_URI",
          "type": "string"
        },
        {
          "internalType": "string",
          "name": "_title",
          "type": "string"
        },
        {
          "internalType": "string",
          "name": "_description",
          "type": "string"
        }
      ],
      "name": "mintToken",
      "outputs": [],
      "stateMutability": "nonpayable",
      "type": "function"
    },
    {
      "inputs": [],
      "name": "name",
      "outputs": [
        {
          "internalType": "string",
          "name": "",
          "type": "string"
        }
      ],
      "stateMutability": "view",
      "type": "function"
    },
    {
      "inputs": [],
      "name": "owner",
      "outputs": [
        {
          "internalType": "address",
          "name": "",
          "type": "address"
        }
      ],
      "stateMutability": "view",
      "type": "function"
    },
    {
      "inputs": [
        {
          "internalType": "uint256",
          "name": "tokenId",
          "type": "uint256"
        }
      ],
      "name": "ownerOf",
      "outputs": [
        {
          "internalType": "address",
          "name": "",
          "type": "address"
        }
      ],
      "stateMutability": "view",
      "type": "function"
    },
    {
      "inputs": [],
      "name": "renounceOwnership",
      "outputs": [],
      "stateMutability": "nonpayable",
      "type": "function"
    },
    {
      "inputs": [
        {
          "internalType": "address",
          "name": "from",
          "type": "address"
        },
        {
          "internalType": "address",
          "name": "to",
          "type": "address"
        },
        {
          "internalType": "uint256",
          "name": "tokenId",
          "type": "uint256"
        }
      ],
      "name": "safeTransferFrom",
      "outputs": [],
      "stateMutability": "nonpayable",
      "type": "function"
    },
    {
      "inputs": [
        {
          "internalType": "address",
          "name": "from",
          "type": "address"
        },
        {
          "internalType": "address",
          "name": "to",
          "type": "address"
        },
        {
          "internalType": "uint256",
          "name": "tokenId",
          "type": "uint256"
        },
        {
          "internalType": "bytes",
          "name": "data",
          "type": "bytes"
        }
      ],
      "name": "safeTransferFrom",
      "outputs": [],
      "stateMutability": "nonpayable",
      "type": "function"
    },
    {
      "inputs": [
        {
          "internalType": "address",
          "name": "operator",
          "type": "address"
        },
        {
          "internalType": "bool",
          "name": "approved",
          "type": "bool"
        }
      ],
      "name": "setApprovalForAll",
      "outputs": [],
      "stateMutability": "nonpayable",
      "type": "function"
    },
    {
      "inputs": [
        {
          "internalType": "bytes4",
          "name": "interfaceId",
          "type": "bytes4"
        }
      ],
      "name": "supportsInterface",
      "outputs": [
        {
          "internalType": "bool",
          "name": "",
          "type": "bool"
        }
      ],
      "stateMutability": "view",
      "type": "function"
    },
    {
      "inputs": [],
      "name": "symbol",
      "outputs": [
        {
          "internalType": "string",
          "name": "",
          "type": "string"
        }
      ],
      "stateMutability": "view",
      "type": "function"
    },
    {
      "inputs": [
        {
          "internalType": "uint256",
          "name": "tokenId",
          "type": "uint256"
        }
      ],
      "name": "tokenURI",
      "outputs": [
        {
          "internalType": "string",
          "name": "",
          "type": "string"
        }
      ],
      "stateMutability": "view",
      "type": "function"
    },
    {
      "inputs": [
        {
          "internalType": "address",
          "name": "from",
          "type": "address"
        },
        {
          "internalType": "address",
          "name": "to",
          "type": "address"
        },
        {
          "internalType": "uint256",
          "name": "tokenId",
          "type": "uint256"
        }
      ],
      "name": "transferFrom",
      "outputs": [],
      "stateMutability": "nonpayable",
      "type": "function"
    },
    {
      "inputs": [
        {
          "internalType": "address",
          "name": "newOwner",
          "type": "address"
        }
      ],
      "name": "transferOwnership",
      "outputs": [],
      "stateMutability": "nonpayable",
      "type": "function"
    },
    {
      "inputs": [
        {
          "internalType": "address",
          "name": "tokenOwner",
          "type": "address"
        },
        {
          "internalType": "uint256",
          "name": "_tokenId",
          "type": "uint256"
        },
        {
          "internalType": "uint256",
          "name": "_price",
          "type": "uint256"
        }
      ],
      "name": "updateTokenPrice",
      "outputs": [],
      "stateMutability": "nonpayable",
      "type": "function"
    }
  ],
  "bytecode": "0x60806040523480156200001157600080fd5b506040516200479c3803806200479c8339818101604052810190620000379190620002e8565b818181600090816200004a9190620005b8565b5080600190816200005c9190620005b8565b5050506200007f620000736200008760201b60201c565b6200008f60201b60201c565b50506200069f565b600033905090565b6000600660009054906101000a900473ffffffffffffffffffffffffffffffffffffffff16905081600660006101000a81548173ffffffffffffffffffffffffffffffffffffffff021916908373ffffffffffffffffffffffffffffffffffffffff1602179055508173ffffffffffffffffffffffffffffffffffffffff168173ffffffffffffffffffffffffffffffffffffffff167f8be0079c531659141344cd1fd0a4f28419497f9722a3daafe3b4186f6b6457e060405160405180910390a35050565b6000604051905090565b600080fd5b600080fd5b600080fd5b600080fd5b6000601f19601f8301169050919050565b7f4e487b7100000000000000000000000000000000000000000000000000000000600052604160045260246000fd5b620001be8262000173565b810181811067ffffffffffffffff82111715620001e057620001df62000184565b5b80604052505050565b6000620001f562000155565b9050620002038282620001b3565b919050565b600067ffffffffffffffff82111562000226576200022562000184565b5b620002318262000173565b9050602081019050919050565b60005b838110156200025e57808201518184015260208101905062000241565b60008484015250505050565b6000620002816200027b8462000208565b620001e9565b905082815260208101848484011115620002a0576200029f6200016e565b5b620002ad8482856200023e565b509392505050565b600082601f830112620002cd57620002cc62000169565b5b8151620002df8482602086016200026a565b91505092915050565b600080604083850312156200030257620003016200015f565b5b600083015167ffffffffffffffff81111562000323576200032262000164565b5b6200033185828601620002b5565b925050602083015167ffffffffffffffff81111562000355576200035462000164565b5b6200036385828601620002b5565b9150509250929050565b600081519050919050565b7f4e487b7100000000000000000000000000000000000000000000000000000000600052602260045260246000fd5b60006002820490506001821680620003c057607f821691505b602082108103620003d657620003d562000378565b5b50919050565b60008190508160005260206000209050919050565b60006020601f8301049050919050565b600082821b905092915050565b600060088302620004407fffffffffffffffffffffffffffffffffffffffffffffffffffffffffffffffff8262000401565b6200044c868362000401565b95508019841693508086168417925050509392505050565b6000819050919050565b6000819050919050565b600062000499620004936200048d8462000464565b6200046e565b62000464565b9050919050565b6000819050919050565b620004b58362000478565b620004cd620004c482620004a0565b8484546200040e565b825550505050565b600090565b620004e4620004d5565b620004f1818484620004aa565b505050565b5b8181101562000519576200050d600082620004da565b600181019050620004f7565b5050565b601f82111562000568576200053281620003dc565b6200053d84620003f1565b810160208510156200054d578190505b620005656200055c85620003f1565b830182620004f6565b50505b505050565b600082821c905092915050565b60006200058d600019846008026200056d565b1980831691505092915050565b6000620005a883836200057a565b9150826002028217905092915050565b620005c3826200036d565b67ffffffffffffffff811115620005df57620005de62000184565b5b620005eb8254620003a7565b620005f88282856200051d565b600060209050601f8311600181146200063057600084156200061b578287015190505b6200062785826200059a565b86555062000697565b601f1984166200064086620003dc565b60005b828110156200066a5784890151825560018201915060208501945060208101905062000643565b868310156200068a578489015162000686601f8916826200057a565b8355505b6001600288020188555050505b505050505050565b6140ed80620006af6000396000f3fe60806040526004361061019c5760003560e01c806379d017a0116100ec578063c457fb371161008a578063e80d7fec11610064578063e80d7fec146105df578063e985e9c514610608578063eca4742a14610645578063f2fde38b146106825761019c565b8063c457fb371461053c578063c87b56dd14610579578063ddc8edf7146105b65761019c565b80638da5cb5b116100c65780638da5cb5b1461049457806395d89b41146104bf578063a22cb465146104ea578063b88d4fde146105135761019c565b806379d017a0146104035780637f1dd80b1461042c57806383920e90146104695761019c565b80632d296bf1116101595780636352211e116101335780636352211e1461034757806367f718a91461038457806370a08231146103af578063715018a6146103ec5761019c565b80632d296bf1146102d9578063305a67a8146102f557806342842e0e1461031e5761019c565b806301ffc9a7146101a157806306fdde03146101de578063081812fc14610209578063095ea7b3146102465780630ad4c4f41461026f57806323b872dd146102b0575b600080fd5b3480156101ad57600080fd5b506101c860048036038101906101c39190612904565b6106ab565b6040516101d5919061294c565b60405180910390f35b3480156101ea57600080fd5b506101f361078d565b60405161020091906129f7565b60405180910390f35b34801561021557600080fd5b50610230600480360381019061022b9190612a4f565b61081f565b60405161023d9190612abd565b60405180910390f35b34801561025257600080fd5b5061026d60048036038101906102689190612b04565b610865565b005b34801561027b57600080fd5b5061029660048036038101906102919190612a4f565b61095b565b6040516102a7959493929190612b53565b60405180910390f35b3480156102bc57600080fd5b506102d760048036038101906102d29190612bbb565b610b9b565b005b6102f360048036038101906102ee9190612a4f565b610bfb565b005b34801561030157600080fd5b5061031c60048036038101906103179190612a4f565b610f9c565b005b34801561032a57600080fd5b5061034560048036038101906103409190612bbb565b611066565b005b34801561035357600080fd5b5061036e60048036038101906103699190612a4f565b611086565b60405161037b9190612abd565b60405180910390f35b34801561039057600080fd5b5061039961110c565b6040516103a69190612c39565b60405180910390f35b3480156103bb57600080fd5b506103d660048036038101906103d19190612c54565b611130565b6040516103e39190612c81565b60405180910390f35b3480156103f857600080fd5b506104016111e7565b005b34801561040f57600080fd5b5061042a60048036038101906104259190612dd1565b6111fb565b005b34801561043857600080fd5b50610453600480360381019061044e9190612a4f565b6112e4565b6040516104609190612abd565b60405180910390f35b34801561047557600080fd5b5061047e6112f6565b60405161048b9190613031565b60405180910390f35b3480156104a057600080fd5b506104a96114a7565b6040516104b69190612abd565b60405180910390f35b3480156104cb57600080fd5b506104d46114d1565b6040516104e191906129f7565b60405180910390f35b3480156104f657600080fd5b50610511600480360381019061050c919061307f565b611563565b005b34801561051f57600080fd5b5061053a60048036038101906105359190613160565b611579565b005b34801561054857600080fd5b50610563600480360381019061055e9190612a4f565b6115db565b6040516105709190612c81565b60405180910390f35b34801561058557600080fd5b506105a0600480360381019061059b9190612a4f565b6115f8565b6040516105ad91906129f7565b60405180910390f35b3480156105c257600080fd5b506105dd60048036038101906105d891906131e3565b611660565b005b3480156105eb57600080fd5b5061060660048036038101906106019190613236565b6116eb565b005b34801561061457600080fd5b5061062f600480360381019061062a9190613276565b6117f0565b60405161063c919061294c565b60405180910390f35b34801561065157600080fd5b5061066c60048036038101906106679190612a4f565b611884565b6040516106799190612abd565b60405180910390f35b34801561068e57600080fd5b506106a960048036038101906106a49190612c54565b611896565b005b60007f80ac58cd000000000000000000000000000000000000000000000000000000007bffffffffffffffffffffffffffffffffffffffffffffffffffffffff1916827bffffffffffffffffffffffffffffffffffffffffffffffffffffffff1916148061077657507f5b5e139f000000000000000000000000000000000000000000000000000000007bffffffffffffffffffffffffffffffffffffffffffffffffffffffff1916827bffffffffffffffffffffffffffffffffffffffffffffffffffffffff1916145b80610786575061078582611919565b5b9050919050565b60606000805461079c906132e5565b80601f01602080910402602001604051908101604052809291908181526020018280546107c8906132e5565b80156108155780601f106107ea57610100808354040283529160200191610815565b820191906000526020600020905b8154815290600101906020018083116107f857829003601f168201915b5050505050905090565b600061082a82611983565b6004600083815260200190815260200160002060009054906101000a900473ffffffffffffffffffffffffffffffffffffffff169050919050565b600061087082611086565b90503373ffffffffffffffffffffffffffffffffffffffff168173ffffffffffffffffffffffffffffffffffffffff1614806108b257506108b181336117f0565b5b6108f1576040517f08c379a00000000000000000000000000000000000000000000000000000000081526004016108e890613362565b60405180910390fd5b6108fb83836119ce565b818373ffffffffffffffffffffffffffffffffffffffff168273ffffffffffffffffffffffffffffffffffffffff167f8c5be1e5ebec7d5bd14f71427d1e84f3dd0314c0f7b2291e5b200ac8c7c3b92560405160405180910390a4505050565b60008060608060606009600087815260200190815260200160002060009054906101000a900473ffffffffffffffffffffffffffffffffffffffff166008600088815260200190815260200160002054600a6000898152602001908152602001600020600b60008a8152602001908152602001600020600c60008b81526020019081526020016000208280546109f0906132e5565b80601f0160208091040260200160405190810160405280929190818152602001828054610a1c906132e5565b8015610a695780601f10610a3e57610100808354040283529160200191610a69565b820191906000526020600020905b815481529060010190602001808311610a4c57829003601f168201915b50505050509250818054610a7c906132e5565b80601f0160208091040260200160405190810160405280929190818152602001828054610aa8906132e5565b8015610af55780601f10610aca57610100808354040283529160200191610af5565b820191906000526020600020905b815481529060010190602001808311610ad857829003601f168201915b50505050509150808054610b08906132e5565b80601f0160208091040260200160405190810160405280929190818152602001828054610b34906132e5565b8015610b815780601f10610b5657610100808354040283529160200191610b81565b820191906000526020600020905b815481529060010190602001808311610b6457829003601f168201915b505050505090509450945094509450945091939590929450565b610bac610ba6611a87565b82611a8f565b610beb576040517f08c379a0000000000000000000000000000000000000000000000000000000008152600401610be2906133f4565b60405180910390fd5b610bf6838383611b24565b505050565b610c0481611e1d565b610c43576040517f08c379a0000000000000000000000000000000000000000000000000000000008152600401610c3a90613460565b60405180910390fd5b6000610c4e82611086565b9050600060086000848152602001908152602001600020549050600073ffffffffffffffffffffffffffffffffffffffff168273ffffffffffffffffffffffffffffffffffffffff1603610cd7576040517f08c379a0000000000000000000000000000000000000000000000000000000008152600401610cce906134cc565b60405180910390fd5b80341015610d1a576040517f08c379a0000000000000000000000000000000000000000000000000000000008152600401610d1190613538565b60405180910390fd5b610d25823385611b24565b610d2e83611e5e565b80341115610d89573373ffffffffffffffffffffffffffffffffffffffff166108fc8234610d5c9190613587565b9081150290604051600060405180830381858888f19350505050158015610d87573d6000803e3d6000fd5b505b600e6040518060a001604052808581526020013373ffffffffffffffffffffffffffffffffffffffff1681526020018473ffffffffffffffffffffffffffffffffffffffff168152602001838152602001600b60008781526020019081526020016000208054610df8906132e5565b80601f0160208091040260200160405190810160405280929190818152602001828054610e24906132e5565b8015610e715780601f10610e4657610100808354040283529160200191610e71565b820191906000526020600020905b815481529060010190602001808311610e5457829003601f168201915b505050505081525090806001815401808255809150506001900390600052602060002090600502016000909190919091506000820151816000015560208201518160010160006101000a81548173ffffffffffffffffffffffffffffffffffffffff021916908373ffffffffffffffffffffffffffffffffffffffff16021790555060408201518160020160006101000a81548173ffffffffffffffffffffffffffffffffffffffff021916908373ffffffffffffffffffffffffffffffffffffffff160217905550606082015181600301556080820151816004019081610f599190613767565b5050507f5de13defa3534de0567d51e62e997235f1c1e8ddc82289aeaca94516a358d539833383604051610f8f93929190613839565b60405180910390a1505050565b610fa581611e1d565b610fe4576040517f08c379a0000000000000000000000000000000000000000000000000000000008152600401610fdb90613460565b60405180910390fd5b3373ffffffffffffffffffffffffffffffffffffffff1661100482611086565b73ffffffffffffffffffffffffffffffffffffffff161461105a576040517f08c379a0000000000000000000000000000000000000000000000000000000008152600401611051906138e2565b60405180910390fd5b61106381611e5e565b50565b61108183838360405180602001604052806000815250611579565b505050565b60008061109283611e78565b9050600073ffffffffffffffffffffffffffffffffffffffff168173ffffffffffffffffffffffffffffffffffffffff1603611103576040517f08c379a00000000000000000000000000000000000000000000000000000000081526004016110fa9061394e565b60405180910390fd5b80915050919050565b611114612885565b6007604051806020016040529081600082015481525050905090565b60008073ffffffffffffffffffffffffffffffffffffffff168273ffffffffffffffffffffffffffffffffffffffff16036111a0576040517f08c379a0000000000000000000000000000000000000000000000000000000008152600401611197906139e0565b60405180910390fd5b600360008373ffffffffffffffffffffffffffffffffffffffff1673ffffffffffffffffffffffffffffffffffffffff168152602001908152602001600020549050919050565b6111ef611eb5565b6111f96000611f33565b565b6112056007611ff9565b6000611211600761200f565b905061121d868261201d565b611227818661203b565b856009600083815260200190815260200160002060006101000a81548173ffffffffffffffffffffffffffffffffffffffff021916908373ffffffffffffffffffffffffffffffffffffffff16021790555083600a600083815260200190815260200160002090816112999190613767565b5082600b600083815260200190815260200160002090816112ba9190613767565b5081600c600083815260200190815260200160002090816112db9190613767565b50505050505050565b60006112ef82611086565b9050919050565b6060600e805480602002602001604051908101604052809291908181526020016000905b8282101561149e57838290600052602060002090600502016040518060a0016040529081600082015481526020016001820160009054906101000a900473ffffffffffffffffffffffffffffffffffffffff1673ffffffffffffffffffffffffffffffffffffffff1673ffffffffffffffffffffffffffffffffffffffff1681526020016002820160009054906101000a900473ffffffffffffffffffffffffffffffffffffffff1673ffffffffffffffffffffffffffffffffffffffff1673ffffffffffffffffffffffffffffffffffffffff1681526020016003820154815260200160048201805461140d906132e5565b80601f0160208091040260200160405190810160405280929190818152602001828054611439906132e5565b80156114865780601f1061145b57610100808354040283529160200191611486565b820191906000526020600020905b81548152906001019060200180831161146957829003601f168201915b5050505050815250508152602001906001019061131a565b50505050905090565b6000600660009054906101000a900473ffffffffffffffffffffffffffffffffffffffff16905090565b6060600180546114e0906132e5565b80601f016020809104026020016040519081016040528092919081815260200182805461150c906132e5565b80156115595780601f1061152e57610100808354040283529160200191611559565b820191906000526020600020905b81548152906001019060200180831161153c57829003601f168201915b5050505050905090565b61157561156e611a87565b8383612057565b5050565b61158a611584611a87565b83611a8f565b6115c9576040517f08c379a00000000000000000000000000000000000000000000000000000000081526004016115c0906133f4565b60405180910390fd5b6115d5848484846121c3565b50505050565b600060086000838152602001908152602001600020549050919050565b606061160382611983565b600061160d61221f565b9050600081511161162d5760405180602001604052806000815250611658565b8061163784612236565b604051602001611648929190613a3c565b6040516020818303038152906040525b915050919050565b3373ffffffffffffffffffffffffffffffffffffffff168373ffffffffffffffffffffffffffffffffffffffff16146116ce576040517f08c379a00000000000000000000000000000000000000000000000000000000081526004016116c590613ad2565b60405180910390fd5b806008600084815260200190815260200160002081905550505050565b6116f482611e1d565b611733576040517f08c379a000000000000000000000000000000000000000000000000000000000815260040161172a90613460565b60405180910390fd5b3373ffffffffffffffffffffffffffffffffffffffff1661175383611086565b73ffffffffffffffffffffffffffffffffffffffff16146117a9576040517f08c379a00000000000000000000000000000000000000000000000000000000081526004016117a090613b64565b60405180910390fd5b6117b3828261203b565b7f1ea85aaf6731daa0c29195039c2a36576fb04e2cd16335504fab8967dfb03f1582826040516117e4929190613b84565b60405180910390a15050565b6000600560008473ffffffffffffffffffffffffffffffffffffffff1673ffffffffffffffffffffffffffffffffffffffff16815260200190815260200160002060008373ffffffffffffffffffffffffffffffffffffffff1673ffffffffffffffffffffffffffffffffffffffff16815260200190815260200160002060009054906101000a900460ff16905092915050565b600061188f8261081f565b9050919050565b61189e611eb5565b600073ffffffffffffffffffffffffffffffffffffffff168173ffffffffffffffffffffffffffffffffffffffff160361190d576040517f08c379a000000000000000000000000000000000000000000000000000000000815260040161190490613c1f565b60405180910390fd5b61191681611f33565b50565b60007f01ffc9a7000000000000000000000000000000000000000000000000000000007bffffffffffffffffffffffffffffffffffffffffffffffffffffffff1916827bffffffffffffffffffffffffffffffffffffffffffffffffffffffff1916149050919050565b61198c81611e1d565b6119cb576040517f08c379a00000000000000000000000000000000000000000000000000000000081526004016119c29061394e565b60405180910390fd5b50565b816004600083815260200190815260200160002060006101000a81548173ffffffffffffffffffffffffffffffffffffffff021916908373ffffffffffffffffffffffffffffffffffffffff160217905550808273ffffffffffffffffffffffffffffffffffffffff16611a4183611086565b73ffffffffffffffffffffffffffffffffffffffff167f8c5be1e5ebec7d5bd14f71427d1e84f3dd0314c0f7b2291e5b200ac8c7c3b92560405160405180910390a45050565b600033905090565b600080611a9b83611086565b90508073ffffffffffffffffffffffffffffffffffffffff168473ffffffffffffffffffffffffffffffffffffffff161480611add5750611adc81856117f0565b5b80611b1b57508373ffffffffffffffffffffffffffffffffffffffff16611b038461081f565b73ffffffffffffffffffffffffffffffffffffffff16145b91505092915050565b8273ffffffffffffffffffffffffffffffffffffffff16611b4482611086565b73ffffffffffffffffffffffffffffffffffffffff1614611b9a576040517f08c379a0000000000000000000000000000000000000000000000000000000008152600401611b9190613cb1565b60405180910390fd5b600073ffffffffffffffffffffffffffffffffffffffff168273ffffffffffffffffffffffffffffffffffffffff1603611c09576040517f08c379a0000000000000000000000000000000000000000000000000000000008152600401611c0090613d43565b60405180910390fd5b611c168383836001612304565b8273ffffffffffffffffffffffffffffffffffffffff16611c3682611086565b73ffffffffffffffffffffffffffffffffffffffff1614611c8c576040517f08c379a0000000000000000000000000000000000000000000000000000000008152600401611c8390613cb1565b60405180910390fd5b6004600082815260200190815260200160002060006101000a81549073ffffffffffffffffffffffffffffffffffffffff02191690556001600360008573ffffffffffffffffffffffffffffffffffffffff1673ffffffffffffffffffffffffffffffffffffffff168152602001908152602001600020600082825403925050819055506001600360008473ffffffffffffffffffffffffffffffffffffffff1673ffffffffffffffffffffffffffffffffffffffff16815260200190815260200160002060008282540192505081905550816002600083815260200190815260200160002060006101000a81548173ffffffffffffffffffffffffffffffffffffffff021916908373ffffffffffffffffffffffffffffffffffffffff160217905550808273ffffffffffffffffffffffffffffffffffffffff168473ffffffffffffffffffffffffffffffffffffffff167fddf252ad1be2c89b69c2b068fc378daa952ba7f163c4a11628f55a4df523b3ef60405160405180910390a4611e18838383600161230a565b505050565b60008073ffffffffffffffffffffffffffffffffffffffff16611e3f83611e78565b73ffffffffffffffffffffffffffffffffffffffff1614159050919050565b600860008281526020019081526020016000206000905550565b60006002600083815260200190815260200160002060009054906101000a900473ffffffffffffffffffffffffffffffffffffffff169050919050565b611ebd611a87565b73ffffffffffffffffffffffffffffffffffffffff16611edb6114a7565b73ffffffffffffffffffffffffffffffffffffffff1614611f31576040517f08c379a0000000000000000000000000000000000000000000000000000000008152600401611f2890613daf565b60405180910390fd5b565b6000600660009054906101000a900473ffffffffffffffffffffffffffffffffffffffff16905081600660006101000a81548173ffffffffffffffffffffffffffffffffffffffff021916908373ffffffffffffffffffffffffffffffffffffffff1602179055508173ffffffffffffffffffffffffffffffffffffffff168173ffffffffffffffffffffffffffffffffffffffff167f8be0079c531659141344cd1fd0a4f28419497f9722a3daafe3b4186f6b6457e060405160405180910390a35050565b6001816000016000828254019250508190555050565b600081600001549050919050565b612037828260405180602001604052806000815250612310565b5050565b8060086000848152602001908152602001600020819055505050565b8173ffffffffffffffffffffffffffffffffffffffff168373ffffffffffffffffffffffffffffffffffffffff16036120c5576040517f08c379a00000000000000000000000000000000000000000000000000000000081526004016120bc90613e1b565b60405180910390fd5b80600560008573ffffffffffffffffffffffffffffffffffffffff1673ffffffffffffffffffffffffffffffffffffffff16815260200190815260200160002060008473ffffffffffffffffffffffffffffffffffffffff1673ffffffffffffffffffffffffffffffffffffffff16815260200190815260200160002060006101000a81548160ff0219169083151502179055508173ffffffffffffffffffffffffffffffffffffffff168373ffffffffffffffffffffffffffffffffffffffff167f17307eab39ab6107e8899845ad3d59bd9653f200f220920489ca2b5937696c31836040516121b6919061294c565b60405180910390a3505050565b6121ce848484611b24565b6121da8484848461236b565b612219576040517f08c379a000000000000000000000000000000000000000000000000000000000815260040161221090613ead565b60405180910390fd5b50505050565b606060405180602001604052806000815250905090565b606060006001612245846124f2565b01905060008167ffffffffffffffff81111561226457612263612ca6565b5b6040519080825280601f01601f1916602001820160405280156122965781602001600182028036833780820191505090505b509050600082602001820190505b6001156122f9578080600190039150507f3031323334353637383961626364656600000000000000000000000000000000600a86061a8153600a85816122ed576122ec613ecd565b5b049450600085036122a4575b819350505050919050565b50505050565b50505050565b61231a8383612645565b612327600084848461236b565b612366576040517f08c379a000000000000000000000000000000000000000000000000000000000815260040161235d90613ead565b60405180910390fd5b505050565b600061238c8473ffffffffffffffffffffffffffffffffffffffff16612862565b156124e5578373ffffffffffffffffffffffffffffffffffffffff1663150b7a026123b5611a87565b8786866040518563ffffffff1660e01b81526004016123d79493929190613f51565b6020604051808303816000875af192505050801561241357506040513d601f19601f820116820180604052508101906124109190613fb2565b60015b612495573d8060008114612443576040519150601f19603f3d011682016040523d82523d6000602084013e612448565b606091505b50600081510361248d576040517f08c379a000000000000000000000000000000000000000000000000000000000815260040161248490613ead565b60405180910390fd5b805181602001fd5b63150b7a0260e01b7bffffffffffffffffffffffffffffffffffffffffffffffffffffffff1916817bffffffffffffffffffffffffffffffffffffffffffffffffffffffff1916149150506124ea565b600190505b949350505050565b600080600090507a184f03e93ff9f4daa797ed6e38ed64bf6a1f0100000000000000008310612550577a184f03e93ff9f4daa797ed6e38ed64bf6a1f010000000000000000838161254657612545613ecd565b5b0492506040810190505b6d04ee2d6d415b85acef8100000000831061258d576d04ee2d6d415b85acef8100000000838161258357612582613ecd565b5b0492506020810190505b662386f26fc1000083106125bc57662386f26fc1000083816125b2576125b1613ecd565b5b0492506010810190505b6305f5e10083106125e5576305f5e10083816125db576125da613ecd565b5b0492506008810190505b612710831061260a576127108381612600576125ff613ecd565b5b0492506004810190505b6064831061262d576064838161262357612622613ecd565b5b0492506002810190505b600a831061263c576001810190505b80915050919050565b600073ffffffffffffffffffffffffffffffffffffffff168273ffffffffffffffffffffffffffffffffffffffff16036126b4576040517f08c379a00000000000000000000000000000000000000000000000000000000081526004016126ab9061402b565b60405180910390fd5b6126bd81611e1d565b156126fd576040517f08c379a00000000000000000000000000000000000000000000000000000000081526004016126f490614097565b60405180910390fd5b61270b600083836001612304565b61271481611e1d565b15612754576040517f08c379a000000000000000000000000000000000000000000000000000000000815260040161274b90614097565b60405180910390fd5b6001600360008473ffffffffffffffffffffffffffffffffffffffff1673ffffffffffffffffffffffffffffffffffffffff16815260200190815260200160002060008282540192505081905550816002600083815260200190815260200160002060006101000a81548173ffffffffffffffffffffffffffffffffffffffff021916908373ffffffffffffffffffffffffffffffffffffffff160217905550808273ffffffffffffffffffffffffffffffffffffffff16600073ffffffffffffffffffffffffffffffffffffffff167fddf252ad1be2c89b69c2b068fc378daa952ba7f163c4a11628f55a4df523b3ef60405160405180910390a461285e60008383600161230a565b5050565b6000808273ffffffffffffffffffffffffffffffffffffffff163b119050919050565b6040518060200160405280600081525090565b6000604051905090565b600080fd5b600080fd5b60007fffffffff0000000000000000000000000000000000000000000000000000000082169050919050565b6128e1816128ac565b81146128ec57600080fd5b50565b6000813590506128fe816128d8565b92915050565b60006020828403121561291a576129196128a2565b5b6000612928848285016128ef565b91505092915050565b60008115159050919050565b61294681612931565b82525050565b6000602082019050612961600083018461293d565b92915050565b600081519050919050565b600082825260208201905092915050565b60005b838110156129a1578082015181840152602081019050612986565b60008484015250505050565b6000601f19601f8301169050919050565b60006129c982612967565b6129d38185612972565b93506129e3818560208601612983565b6129ec816129ad565b840191505092915050565b60006020820190508181036000830152612a1181846129be565b905092915050565b6000819050919050565b612a2c81612a19565b8114612a3757600080fd5b50565b600081359050612a4981612a23565b92915050565b600060208284031215612a6557612a646128a2565b5b6000612a7384828501612a3a565b91505092915050565b600073ffffffffffffffffffffffffffffffffffffffff82169050919050565b6000612aa782612a7c565b9050919050565b612ab781612a9c565b82525050565b6000602082019050612ad26000830184612aae565b92915050565b612ae181612a9c565b8114612aec57600080fd5b50565b600081359050612afe81612ad8565b92915050565b60008060408385031215612b1b57612b1a6128a2565b5b6000612b2985828601612aef565b9250506020612b3a85828601612a3a565b9150509250929050565b612b4d81612a19565b82525050565b600060a082019050612b686000830188612aae565b612b756020830187612b44565b8181036040830152612b8781866129be565b90508181036060830152612b9b81856129be565b90508181036080830152612baf81846129be565b90509695505050505050565b600080600060608486031215612bd457612bd36128a2565b5b6000612be286828701612aef565b9350506020612bf386828701612aef565b9250506040612c0486828701612a3a565b9150509250925092565b612c1781612a19565b82525050565b602082016000820151612c336000850182612c0e565b50505050565b6000602082019050612c4e6000830184612c1d565b92915050565b600060208284031215612c6a57612c696128a2565b5b6000612c7884828501612aef565b91505092915050565b6000602082019050612c966000830184612b44565b92915050565b600080fd5b600080fd5b7f4e487b7100000000000000000000000000000000000000000000000000000000600052604160045260246000fd5b612cde826129ad565b810181811067ffffffffffffffff82111715612cfd57612cfc612ca6565b5b80604052505050565b6000612d10612898565b9050612d1c8282612cd5565b919050565b600067ffffffffffffffff821115612d3c57612d3b612ca6565b5b612d45826129ad565b9050602081019050919050565b82818337600083830152505050565b6000612d74612d6f84612d21565b612d06565b905082815260208101848484011115612d9057612d8f612ca1565b5b612d9b848285612d52565b509392505050565b600082601f830112612db857612db7612c9c565b5b8135612dc8848260208601612d61565b91505092915050565b600080600080600060a08688031215612ded57612dec6128a2565b5b6000612dfb88828901612aef565b9550506020612e0c88828901612a3a565b945050604086013567ffffffffffffffff811115612e2d57612e2c6128a7565b5b612e3988828901612da3565b935050606086013567ffffffffffffffff811115612e5a57612e596128a7565b5b612e6688828901612da3565b925050608086013567ffffffffffffffff811115612e8757612e866128a7565b5b612e9388828901612da3565b9150509295509295909350565b600081519050919050565b600082825260208201905092915050565b6000819050602082019050919050565b612ed581612a9c565b82525050565b600082825260208201905092915050565b6000612ef782612967565b612f018185612edb565b9350612f11818560208601612983565b612f1a816129ad565b840191505092915050565b600060a083016000830151612f3d6000860182612c0e565b506020830151612f506020860182612ecc565b506040830151612f636040860182612ecc565b506060830151612f766060860182612c0e565b5060808301518482036080860152612f8e8282612eec565b9150508091505092915050565b6000612fa78383612f25565b905092915050565b6000602082019050919050565b6000612fc782612ea0565b612fd18185612eab565b935083602082028501612fe385612ebc565b8060005b8581101561301f57848403895281516130008582612f9b565b945061300b83612faf565b925060208a01995050600181019050612fe7565b50829750879550505050505092915050565b6000602082019050818103600083015261304b8184612fbc565b905092915050565b61305c81612931565b811461306757600080fd5b50565b60008135905061307981613053565b92915050565b60008060408385031215613096576130956128a2565b5b60006130a485828601612aef565b92505060206130b58582860161306a565b9150509250929050565b600067ffffffffffffffff8211156130da576130d9612ca6565b5b6130e3826129ad565b9050602081019050919050565b60006131036130fe846130bf565b612d06565b90508281526020810184848401111561311f5761311e612ca1565b5b61312a848285612d52565b509392505050565b600082601f83011261314757613146612c9c565b5b81356131578482602086016130f0565b91505092915050565b6000806000806080858703121561317a576131796128a2565b5b600061318887828801612aef565b945050602061319987828801612aef565b93505060406131aa87828801612a3a565b925050606085013567ffffffffffffffff8111156131cb576131ca6128a7565b5b6131d787828801613132565b91505092959194509250565b6000806000606084860312156131fc576131fb6128a2565b5b600061320a86828701612aef565b935050602061321b86828701612a3a565b925050604061322c86828701612a3a565b9150509250925092565b6000806040838503121561324d5761324c6128a2565b5b600061325b85828601612a3a565b925050602061326c85828601612a3a565b9150509250929050565b6000806040838503121561328d5761328c6128a2565b5b600061329b85828601612aef565b92505060206132ac85828601612aef565b9150509250929050565b7f4e487b7100000000000000000000000000000000000000000000000000000000600052602260045260246000fd5b600060028204905060018216806132fd57607f821691505b6020821081036133105761330f6132b6565b5b50919050565b7f4e6f7420617070726f76656420746f207472616e736665720000000000000000600082015250565b600061334c601883612972565b915061335782613316565b602082019050919050565b6000602082019050818103600083015261337b8161333f565b9050919050565b7f4552433732313a2063616c6c6572206973206e6f7420746f6b656e206f776e6560008201527f72206f7220617070726f76656400000000000000000000000000000000000000602082015250565b60006133de602d83612972565b91506133e982613382565b604082019050919050565b6000602082019050818103600083015261340d816133d1565b9050919050565b7f546f6b656e20646f6573206e6f74206578697374000000000000000000000000600082015250565b600061344a601483612972565b915061345582613414565b602082019050919050565b600060208201905081810360008301526134798161343d565b9050919050565b7f496e76616c696420746f6b656e206f776e657200000000000000000000000000600082015250565b60006134b6601383612972565b91506134c182613480565b602082019050919050565b600060208201905081810360008301526134e5816134a9565b9050919050565b7f496e73756666696369656e742066756e64730000000000000000000000000000600082015250565b6000613522601283612972565b915061352d826134ec565b602082019050919050565b6000602082019050818103600083015261355181613515565b9050919050565b7f4e487b7100000000000000000000000000000000000000000000000000000000600052601160045260246000fd5b600061359282612a19565b915061359d83612a19565b92508282039050818111156135b5576135b4613558565b5b92915050565b60008190508160005260206000209050919050565b60006020601f8301049050919050565b600082821b905092915050565b60006008830261361d7fffffffffffffffffffffffffffffffffffffffffffffffffffffffffffffffff826135e0565b61362786836135e0565b95508019841693508086168417925050509392505050565b6000819050919050565b600061366461365f61365a84612a19565b61363f565b612a19565b9050919050565b6000819050919050565b61367e83613649565b61369261368a8261366b565b8484546135ed565b825550505050565b600090565b6136a761369a565b6136b2818484613675565b505050565b5b818110156136d6576136cb60008261369f565b6001810190506136b8565b5050565b601f82111561371b576136ec816135bb565b6136f5846135d0565b81016020851015613704578190505b613718613710856135d0565b8301826136b7565b50505b505050565b600082821c905092915050565b600061373e60001984600802613720565b1980831691505092915050565b6000613757838361372d565b9150826002028217905092915050565b61377082612967565b67ffffffffffffffff81111561378957613788612ca6565b5b61379382546132e5565b61379e8282856136da565b600060209050601f8311600181146137d157600084156137bf578287015190505b6137c9858261374b565b865550613831565b601f1984166137df866135bb565b60005b82811015613807578489015182556001820191506020850194506020810190506137e2565b868310156138245784890151613820601f89168261372d565b8355505b6001600288020188555050505b505050505050565b600060608201905061384e6000830186612b44565b61385b6020830185612aae565b6138686040830184612b44565b949350505050565b7f4f6e6c7920746f6b656e206f776e65722063616e2063616e63656c206c69737460008201527f696e670000000000000000000000000000000000000000000000000000000000602082015250565b60006138cc602383612972565b91506138d782613870565b604082019050919050565b600060208201905081810360008301526138fb816138bf565b9050919050565b7f4552433732313a20696e76616c696420746f6b656e2049440000000000000000600082015250565b6000613938601883612972565b915061394382613902565b602082019050919050565b600060208201905081810360008301526139678161392b565b9050919050565b7f4552433732313a2061646472657373207a65726f206973206e6f74206120766160008201527f6c6964206f776e65720000000000000000000000000000000000000000000000602082015250565b60006139ca602983612972565b91506139d58261396e565b604082019050919050565b600060208201905081810360008301526139f9816139bd565b9050919050565b600081905092915050565b6000613a1682612967565b613a208185613a00565b9350613a30818560208601612983565b80840191505092915050565b6000613a488285613a0b565b9150613a548284613a0b565b91508190509392505050565b7f4e6f207065726d697373696f6e20746f206368616e67652074686520746f6b6560008201527f6e20707269636500000000000000000000000000000000000000000000000000602082015250565b6000613abc602783612972565b9150613ac782613a60565b604082019050919050565b60006020820190508181036000830152613aeb81613aaf565b9050919050565b7f4f6e6c7920746f6b656e206f776e65722063616e206c69737420666f7220736160008201527f6c65000000000000000000000000000000000000000000000000000000000000602082015250565b6000613b4e602283612972565b9150613b5982613af2565b604082019050919050565b60006020820190508181036000830152613b7d81613b41565b9050919050565b6000604082019050613b996000830185612b44565b613ba66020830184612b44565b9392505050565b7f4f776e61626c653a206e6577206f776e657220697320746865207a65726f206160008201527f6464726573730000000000000000000000000000000000000000000000000000602082015250565b6000613c09602683612972565b9150613c1482613bad565b604082019050919050565b60006020820190508181036000830152613c3881613bfc565b9050919050565b7f4552433732313a207472616e736665722066726f6d20696e636f72726563742060008201527f6f776e6572000000000000000000000000000000000000000000000000000000602082015250565b6000613c9b602583612972565b9150613ca682613c3f565b604082019050919050565b60006020820190508181036000830152613cca81613c8e565b9050919050565b7f4552433732313a207472616e7366657220746f20746865207a65726f2061646460008201527f7265737300000000000000000000000000000000000000000000000000000000602082015250565b6000613d2d602483612972565b9150613d3882613cd1565b604082019050919050565b60006020820190508181036000830152613d5c81613d20565b9050919050565b7f4f776e61626c653a2063616c6c6572206973206e6f7420746865206f776e6572600082015250565b6000613d99602083612972565b9150613da482613d63565b602082019050919050565b60006020820190508181036000830152613dc881613d8c565b9050919050565b7f4552433732313a20617070726f766520746f2063616c6c657200000000000000600082015250565b6000613e05601983612972565b9150613e1082613dcf565b602082019050919050565b60006020820190508181036000830152613e3481613df8565b9050919050565b7f4552433732313a207472616e7366657220746f206e6f6e20455243373231526560008201527f63656976657220696d706c656d656e7465720000000000000000000000000000602082015250565b6000613e97603283612972565b9150613ea282613e3b565b604082019050919050565b60006020820190508181036000830152613ec681613e8a565b9050919050565b7f4e487b7100000000000000000000000000000000000000000000000000000000600052601260045260246000fd5b600081519050919050565b600082825260208201905092915050565b6000613f2382613efc565b613f2d8185613f07565b9350613f3d818560208601612983565b613f46816129ad565b840191505092915050565b6000608082019050613f666000830187612aae565b613f736020830186612aae565b613f806040830185612b44565b8181036060830152613f928184613f18565b905095945050505050565b600081519050613fac816128d8565b92915050565b600060208284031215613fc857613fc76128a2565b5b6000613fd684828501613f9d565b91505092915050565b7f4552433732313a206d696e7420746f20746865207a65726f2061646472657373600082015250565b6000614015602083612972565b915061402082613fdf565b602082019050919050565b6000602082019050818103600083015261404481614008565b9050919050565b7f4552433732313a20746f6b656e20616c7265616479206d696e74656400000000600082015250565b6000614081601c83612972565b915061408c8261404b565b602082019050919050565b600060208201905081810360008301526140b081614074565b905091905056fea2646970667358221220f791dbe931d84d75b1dbab2ae9d567103d3e6ca4293161dcba583128f11dfbf464736f6c63430008130033",
  "linkReferences": {},
  "deployedLinkReferences": {}
}